:020000040801F1
:10000000600F002019A101082D9501083123010876
:1000100025A3010829A301082DA301080000000061
:10002000000000000000000000000000079601082A
:1000300031A3010800000000099601081F9C010877
:1000400035A3010839A30108000000003DA3010801
:100050000B96010841A3010845A3010849A3010823
:100060004DA3010851A3010855A3010859A3010894
:100070005DA3010861A3010865A3010869A3010844
:100080006DA3010871A3010875A30108A9720108F5
:1000900079A301087DA3010881A3010885A30108B4
:1000A00089A301088DA3010891A30108BF8D010850
:1000B00095A3010899A301089DA30108A1A3010824
:1000C000A5A30108A9A30108ADA30108B1A30108D4
:1000D000B5A30108B9A30108BDA30108C1A3010884
:1000E000C5A30108C9A30108CDA30108D1A3010834
:1000F000D5A30108D9A30108DDA30108E1A30108E4
:10010000E5A30108E9A3010800000000EDA3010830
:100110000000000000000000F1A30108F5A30108A1
:10012000F9A30108FDA3010801A4010805A4010821
:1001300009A40108000000000DA4010811A4010891
:1001400015A4010819A401081DA4010821A401088F
:1001500025A4010829A401082DA4010846F6691068
:10016000DFF82C1A0880DFF82C1A08800020DFF84E
:10017000281A0870DFF8240A00210170002141804C
:100180000021816000218181002181730120DFF83D
:100190000C1B0870DFF8080B00210180042181701E
:1001A0000421C17070472DE9F04704000D001600CE
:1001B00099460120DFF8EC7A00213970DFF8DC1A6B
:1001C0000E70002C01D0002D02D15FF00008E2E09B
:1001D0005FF001080021DFF8542B11700021DFF8D7
:1001E000502B11700021DFF84C2B1170DFF8A01993
:1001F0000A8843F66943D21A19D04FF4C853D21A69
:1002000015D04FF4A053D21A10D02D3A0FD042F689
:10021000D343D21A0BD02D3A09D041F2D333D21A9C
:1002200005D04FF4C853D21A01D00CE014E008886E
:1002300046F669120A80DFF8002B1278DFF8583989
:100240001A70088008E0DFF8F40A008808800020AF
:1002500002F06DF8002080464046C0B2012816D159
:10026000287810280DD011280BD0272809D028284D
:1002700007D0312805D03E2803D0852801D0872813
:1002800005D12900200000F0D5FF8046FFE7404659
:10029000C0B201287DD12878103801281CD9001F50
:1002A0001AD0401F18D0093827D0401E14D0401E45
:1002B00023D0C01E01280FD9C01F01281DD9C01E80
:1002C00001282BD9C01E032806D90938012803D9D3
:1002D000483801D0801E32D14846C0B2002803D031
:1002E0004846C0B2022805D12900200000F057F886
:1002F000824601E05FF0110A23E04846C0B20028C0
:1003000003D04846C0B2022805D12900200000F0E1
:1003100080FA824601E05FF0110A12E04846C0B25E
:10032000002803D04846C0B2022805D12900200089
:1003300000F036FC824601E05FF0110A01E05FF058
:10034000110A5046C0B2402817D05046C0B2FF280C
:1003500002D1002020801EE05046C0B2782804D18F
:10036000782080460020208015E05246D2B2290035
:10037000200000F009FF80460DE03878002805D104
:100380002900200000F02EFF804604E0002020809D
:1003900001E0002020804046C0B2BDE8F087F8B5FB
:1003A00004000D00002C01D0002D01D1FF2693E0A8
:1003B0002900200000F093F806003000C0B2402869
:1003C00040F08A802878142809D0232807D03428C0
:1003D00005D0362803D0372801D03D2800D104E0CD
:1003E0002900200000F0C1F806003000C0B240280B
:1003F00072D128781038012812D9001F10D0401F60
:100400000ED00A380CD0001F012809D90D38032856
:1004100006D90938012803D9483801D0801E05D1F2
:100420002900200000F00AF90600FFE73000C0B202
:10043000402851D10C22DFF8F438DFF83C7B2088CB
:100440001978514339448988884205D01878504337
:100450003844808800283DD12878102819D1187890
:10046000504338448068002808D0290020001B78B9
:1004700002FB03F23A449268904706003000C0B293
:10048000402829D1687810F07F0000F0EFFE0600C8
:1004900022E0187850433844806800281CD0290096
:1004A00020001B7802FB03F23A4492689047060052
:1004B0003000C0B278280FD1DFF8E0067F2101714B
:1004C000297841718671002141800121017000204D
:1004D000208001E0132006003000C0B2F2BDF0B46D
:1004E00002000023002A01D0002901D1FF2039E0B9
:1004F0001088002835D01800C0B2002823D1DFF8BA
:100500002C482078DFF8385B2D78A8421BD20C20CD
:10051000DFF8645A26784643AE5D0F78BE420ED1AE
:10052000DFF87867277800FB07F028448579307872
:1005300005403078854202D101200300DBE72078B6
:10054000401C2070D7E71800C0B2012807D1DFF89F
:10055000DC070078DFF8D8472070402002E0112047
:1005600000E01120C0B2F0BC7047F0B502000024DA
:10057000002A01D0002901D1FF205DE01088022867
:1005800059D30878102809D0112807D0282805D079
:100590003E2803D0852801D0872804D1487810F060
:1005A0007F00030001E0487803002000C0B200286B
:1005B00033D1DFF878572878DFF8846A3678B0428C
:1005C0002BD20C26DFF8B07928787043385C91F88C
:1005D00000C060451DD1DFF8C4C628787043384498
:1005E00090F806E09CF8000010EA0E0E9CF800005F
:1005F0005FFA8EFE86450CD1287806FB00F607EBE5
:10060000060040781E00F6B2B04202D1012004007C
:10061000CBE72878401C2870C7E72000C0B201282B
:1006200007D1DFF808070078DFF808572870402066
:1006300002E0122000E01320C0B2F0BD2DE9F04727
:1006400004000D0040275FF000085FF00109002C56
:1006500001D0002D02D1FF200700D6E02878102815
:100660000BD0112809D0272807D0282805D03E28EC
:1006700003D0852801D0872804D1687810F07F0046
:10068000060001E068780600DFF8A0A6DFF8A00603
:1006900000788AF80000DFF8FC04018843F669421C
:1006A000891A2DD04FF4C852891A17D04FF4A0528E
:1006B000891A1CD02D3914D042F6D342891A19D088
:1006C0002D3911D041F2D332891A04D04FF4C852D7
:1006D000891A12D017E0102081461DE020208146A3
:1006E0001AE04020814617E08020814614E0012076
:1006F000814611E0022081460EE0042081460BE095
:100700000820814608E0DFF8601B0988018001208D
:1007100001F00DFEFF2007003800C0B2402874D160
:100720004046C0B2002822D19AF80000DFF8101924
:10073000097888421BD20C20DFF83C189AF8002078
:1007400042438A5C2B789A4211D19AF8002000FB30
:1007500002F00844807810EA090F02D00120804698
:10076000DEE79AF80000401C8AF80000D8E740460F
:10077000C0B2012847D12878142809D0232807D0EF
:10078000342805D0362803D0372801D03D2800D1A1
:100790002FE0DFF8A00500788AF8000000208046EE
:1007A0004046C0B2002824D19AF80000DFF8901823
:1007B000097888421DD20C20DFF8BC179AF8002077
:1007C00042430A4452783300DBB29A4211D19AF87C
:1007D000002000FB02F00844807810EA090F02D0E4
:1007E00001208046DCE79AF80000401C8AF80000EF
:1007F000D6E74046C0B2012802D14020070004E0FD
:100800007E20070001E07F2007003800C0B2BDE86D
:10081000F08770B504000D00002C01D0002D01D12F
:10082000FF2658E06878A97811EB0021DFF8640B07
:1008300001802900200000F051F8060020880328DC
:1008400001DA132006003000C0B2402843D129004D
:10085000200000F087F806003000C0B240283AD1EE
:100860002900200000F048F906003000C0B24028FE
:1008700031D1DFF8B824DFF8183B2088117809015E
:100880001944C988884205D0107800011844C088EE
:1008900000281ED1107800011844C06800281AD022
:1008A00029002000127812011A44D26890470600ED
:1008B0003000C0B278280ED1B8487F210171297864
:1008C000417186710021418001210170002020804A
:1008D00001E0132006003000C0B270BD70B4020009
:1008E0000023002A01D0002901D1FF2037E0108821
:1008F000002833D01800C0B2002821D1DFF82C44E2
:100900002078DFF8945A2D78A84219D2DFF8800AAF
:1009100025782D01455D0E78B5420DD1DFF87C5369
:10092000267836013044067A2878064028788642B0
:1009300002D101200300DDE72078401C2070D9E7B8
:100940001800C0B2012807D1DFF8E0030078DFF813
:10095000E0432070402002E0112000E01120C0B2EE
:1009600070BC70472DE9F04704000D0040260027B9
:100970005FF00108002C01D0002D02D1FF200600FD
:10098000B6E0DFF8A893DFF8A8A39AF8000089F88A
:1009900000008048018843F66942891A2DD04FF43F
:1009A000C852891A17D04FF4A052891A1CD02D3979
:1009B00014D042F6D342891A19D02D3911D041F200
:1009C000D332891A04D04FF4C852891A12D017E0D2
:1009D000102080461DE0202080461AE040208046FE
:1009E00017E08020804614E00120804611E00220BC
:1009F00080460EE0042080460BE00820804608E098
:100A0000DFF8641809880180012001F090FCFF20C4
:100A100006003000C0B240286AD13800C0B20028B9
:100A200020D199F80000DFF870190978884219D2AE
:100A3000DFF85C0999F800100901415C2A789142BD
:100A400010D199F8001009010844007910EA080F44
:100A500002D001200700E0E799F80000401C89F867
:100A60000000DAE73800C0B201283FD19AF8000050
:100A700089F80000002007003800C0B200282BD100
:100A800099F80000DFF810190978884224D2DFF8BD
:100A9000000999F800100901415C2A7891421BD1A4
:100AA00099F80010090101444988DFF8E828128804
:100AB00091420BD199F80010090108440079414690
:100AC000C9B2084202D001200700D5E799F800001A
:100AD000401C89F80000CFE73800C0B2012802D1DD
:100AE0004020060004E03120060001E07F200600DF
:100AF0003000C0B2BDE8F08770B402000023002AC5
:100B000001D0002901D1FF203FE0108803283BDB02
:100B1000864C8748007820701800C0B2002828D181
:100B20002078DFF874582D78A84222D2DFF86008C8
:100B300025782D01455D0E78B54216D125782D0119
:100B400005446D88DFF84C683688B5420DD1534DA9
:100B5000267836013044067A287806402878F6B29E
:100B6000864202D101200300D6E72078401C207085
:100B7000D2E71800C0B2012804D120786D4C207053
:100B8000402002E0312000E03120C0B270BC70474C
:100B900000070020020700203F0700207406002005
:100BA00070B504000D00002C01D0002D01D1FF26EE
:100BB00070E0A878E97811EB0021DFF844090180A2
:100BC0002900200000F070F806003000C0B2402874
:100BD00060D12878322804D02900200000F0B0F835
:100BE00006003000C0B2402854D12900200000F097
:100BF000FAF806003000C0B240284BD1290020008E
:100C000000F0BCF906003000C0B2402842D147488D
:100C1000DFF8F018228803781B010B44DB889A4226
:100C200005D0007800010844C088002830D16878D9
:100C300010F07F00C0B2012804D015D303280DD0D6
:100C400006D311E02900200000F0FCF906000DE0B9
:100C50002900200000F02EFA060007E029002000FD
:100C600000F061FA060001E0122006003000C0B278
:100C700078280FD1DFF890087F2101712978417120
:100C8000867100214180012101700020208001E057
:100C9000132006003000C0B270BD000044070020E1
:100CA000EC0600204107002070B402000023002A57
:100CB00001D0002901D1FF2034E01088002830D075
:100CC0001800C0B2002820D1184C2078DFF83C581A
:100CD0002D78A84219D2DFF82C0825782D01455D22
:100CE0000E78B5420DD1DFF8285826783601304409
:100CF000067A287806402878864202D1012003002F
:100D0000DEE72078401C2070DAE71800C0B2012826
:100D100005D106480078064C2070402002E01120E2
:100D200000E01120C0B270BC7047000040070020F6
:100D30004207002043070020A27601087A630108D9
:100D4000F0B402000024002A01D0002901D1FF20C4
:100D500046E01088022842D3487810F07F00030054
:100D60002000C0B200282AD1DFF8A8572878DFF881
:100D70009C673678B04222D2DFF888072E78360199
:100D8000865D0F78BE4216D12E78360106447678FD
:100D90001F00FFB2BE420ED1DFF874672F783F010B
:100DA0003844077A307807403078FFB2874202D162
:100DB00001200400D4E72878401C2870D0E7DFF831
:100DC00054070578DFF844673678B54205D20078D5
:100DD000DFF844572870402002E0122000E0132082
:100DE000C0B2F0BC70472DE9F04704000D0040266A
:100DF00000275FF00108002C01D0002D02D1FF2058
:100E00000600B4E0DFF80C97DFF810A79AF80000AE
:100E100089F80000DFF80807018843F66942891A5B
:100E20002DD04FF4C852891A17D04FF4A052891A06
:100E30001CD02D3914D042F6D342891A19D02D393D
:100E400011D041F2D332891A04D04FF4C852891A12
:100E500012D017E0102080461DE0202080461AE0C6
:100E60004020804617E08020804614E00120804624
:100E700011E0022080460EE0042080460BE00820AE
:100E8000804608E0DFF8E01309880180012001F0C6
:100E90004EFAFF2006003000C0B2402867D138006B
:100EA000C0B2002820D199F80000DFF86016097858
:100EB000884219D2DFF84C0699F800100901415C0C
:100EC0002A78914210D199F800100901084400795C
:100ED00010EA080F02D001200700E0E799F80000AF
:100EE000401C89F80000DAE73800C0B201283CD184
:100EF0009AF8000089F80000002007003800C0B20E
:100F0000002834D199F80000DFF8001609788842EB
:100F10002DD2DFF8F00599F800100901415C2A781C
:100F2000914224D199F80010090101444988DFF861
:100F3000D025128891420ED199F800100901084479
:100F4000007910EA080F04D00120070040200600B5
:100F500001E07E2006003800C0B20028CED199F80A
:100F60000000401C89F80000C8E77F200600300020
:100F7000C0B2BDE8F08700005C9C0108F0B402003C
:100F80000024002A01D0002901D1FF2055E010885B
:100F9000042851DBDFF87C55DFF87C653078287059
:100FA000487810F07F0003002000C0B2002839D13B
:100FB0002878DFF858753F78B84233D2DFF8440517
:100FC0002F783F01C75D91F800C0674526D12F7883
:100FD0003F0107447F789C465FFA8CFC67451DD132
:100FE0002F783F0107447F88DFF814C5BCF800C0A4
:100FF000674513D1DFF8187595F800C05FEA0C1C3F
:10100000604490F808C0387810EA0C0C38785FFA21
:101010008CFC844502D101200400C5E72878401CDF
:101020002870C1E72000C0B2012803D128783070B1
:10103000402002E0312000E03120C0B2F0BC704717
:10104000A3760108F8B504000D00002C01D0002D96
:1010500001D1FF272BE0DFF8CC64B078022807D15C
:101060003088DFF89C140988884201D022271EE0CE
:101070004027DFF88C0400883080DFF89824DFF800
:101080008434107800011844C068002807D0290073
:101090002000127812011A44D268904707003800E5
:1010A000C0B2402803D10220B0702879F070380017
:1010B000C0B2F2BDF8B504000D004026002C01D0EE
:1010C000002D02D1FF2006002AE0DFF85874B8781E
:1010D0000C2823D03888DFF82814098888421DD1CD
:1010E000DFF83024DFF81C34107800011844C068A1
:1010F000002807D029002000127812011A44D26873
:10110000904706003000C0B2402804D12879F8701A
:101110000820B87004E00C20B87001E0242006001C
:101120003000C0B2F2BD70B504000D004026002CA6
:1011300001D0002D02D1FF20060022E0DFF8E413E9
:1011400088780C281BD00888DFF8B42312889042D6
:1011500015D1DFF8C023DFF8AC3310780001184454
:10116000C068002808D029002000127812011A4413
:10117000D2689047060004E0C878287101E0242076
:1011800006003000C0B270BD30B403000120002B57
:1011900001D0002902D10024200020E0DFF87043B4
:1011A0002478022C14D11400E4B2113C012C04D98F
:1011B000203C02D04D3C012C02D800241C800EE0C3
:1011C0008A700C784C707F240C7003241C8006E01D
:1011D0008A700C784C707F240C7003241C80C0B281
:1011E00030BC704702000120002A01D0002902D142
:1011F000002318001CE01388002B17D00B78102B4D
:1012000010D113881B1D13801388062B08D10023CF
:101210008B703223CB7000230B71C8234B7101E01C
:10122000002318000B7840330B7001E000231800F6
:10123000C0B2704710B402000120002A01D000297A
:1012400002D1002318000BE04B781B0604D50123C4
:10125000DFF8D442237003E00023DFF8CC42237090
:10126000C0B210BC70470000E2630108F8B504008A
:1012700040252000C0B202280CD003280ED0402800
:1012800014D0412816D0422818D043281AD06028FC
:1012900008D01BE049F269673E001AE04CF269375A
:1012A0003E0016E043F669473E0012E04AF6692721
:1012B0003E000EE045F269573E000AE046F69617FA
:1012C0003E0006E049F296673E0002E046F66917E6
:1012D0003E009648018843F66942891A30D04FF49F
:1012E000C852891A2CD04FF4A052891A10D02D3927
:1012F00026D042F6D342891A22D02D3920D041F28D
:10130000D332891A1CD04FF4C852891A18D02EE053
:10131000310089B246F66912914203D084490978B6
:10132000844A11700188320092B2914207D006803F
:101330000C207C4988702000C0B201F0B5F91EE095
:10134000310046F6691289B2914202D10021794AF0
:1013500011700188320092B2914207D006800C20B1
:10136000704988702000C0B201F09EF907E0724910
:1013700009880180002000F0DAFFFF200500280026
:10138000C0B2402801D1664807802800C0B2F2BD33
:1013900008A00108040700204CA2010870B5112420
:1013A000624D288843F66941401A4ED04FF4C85127
:1013B000401A4AD04FF4A051401A10D02D3844D0D2
:1013C00042F6D341401A40D02D383ED041F2D331BD
:1013D000401A3AD04FF4C851401A36D084E04A4DF2
:1013E000287801280FD002282ED1A87B002809D107
:1013F000002028704E4800784E490870A968A889D6
:1014000001F05CF920E06888012801D100F0D4F8EF
:101410006888002814D1A87B002814D1444800789B
:101420004449087027206880291D032001F046F9EF
:1014300004002000C0B2402805D10120A87302E0BA
:101440006888401E6880FFE754E02F4E30780128FE
:101450000FD002282ED1B07B002809D10020307097
:101460003348007833490870B168B08901F026F933
:1014700020E07088012801D100F09EF870880028D3
:1014800014D1B07B002814D129480078294908706C
:1014900027207080311D032001F010F90400200086
:1014A000C0B2402805D10120B07302E07088401E10
:1014B0007080FFE71F490878002811D146F66910AF
:1014C00028801749088001201C49487000201C49C9
:1014D00008700C2013498870012001F0E5F802E043
:1014E0000878401E087005E0134800882880002016
:1014F00000F01DFF70BD0020034988737047000095
:1015000006070020E89E0108740600204DA201088D
:101510004407002040070020430700204207002026
:1015200002070020EC0600204107002000070020F1
:10153000A27601083F0700207A630108AC0600206C
:101540000E07002080B501F010FBDFF8001A0878C4
:10155000002815D00878FF2806D100200870012047
:10156000DFF8DC1B08700FE00878032802D1087848
:10157000401E08704FF47A71002001F062FB03E016
:101580000120DFF8BC1B087001BDDFF8EC1B087000
:101590007047DFF8E40B007870477047704770477A
:1015A0000100C9B20029FFD070470100C9B200296B
:1015B000FFD0704770477047704710B40200DFF8E3
:1015C000300A0378012B03D00123DFF8284A637027
:1015D0000123DFF8244A23700123DFF8204A237017
:1015E0000123DFF81C4A23700123DFF8184A237017
:1015F0000023DFF8144A2370012303700020DFF872
:10160000F03A18700020DFF8EC3A18700020DFF88C
:10161000343B1870402010BC70472DE9F041A0B059
:1016200005000E0040276846802101F065FBDFF8C9
:10163000C80A4189592904DB007A002801D1012018
:1016400000E00020C0B200280CD1DFF8FC0A0178CD
:10165000A12907DA00785A2804DBDFF8E80A0078C5
:10166000002802D15FF0220847E0012080F31088B3
:1016700000200100C9B240290DDA0100C9B2DFF82B
:10168000FC2A12EB410211886A460300DBB222F801
:101690001310401CEDE742F21120ADF8040001F0F8
:1016A0002FFB01F079FDDFF8D48A404601F045FCBC
:1016B00004002000C0B2002812D101F021FB01F08B
:1016C0006BFD6946404601F08CFC04002000C0B26E
:1016D000002802D15FF0400804E05FF0720801E0EA
:1016E0005FF0720801F069FD01F025FB002080F336
:1016F00010880120DFF8D41B08704046C0B220B02B
:10170000BDE8F08110B40200DFF8E4080378032B91
:1017100003D00123DFF8DC4863700023DFF8E848DA
:10172000237003230370402010BC704770B5040081
:101730000D004026DFF8C0094189592904DB007AF1
:10174000002801D1012000E00020C0B200280ED105
:10175000DFF89C080078012807D00120DFF86C1B17
:10176000087001F092FF402002E07F2000E022207C
:10177000C0B270BD10B403004020DFF87C2954894A
:10178000592C04DB127A002A01D122221000C0B2A7
:1017900010BC704770B504000D004026DFF85809F2
:1017A0004189592904DB007A002801D1012000E099
:1017B0000020C0B200280ED1DFF8340800780128DC
:1017C00007D00120DFF8041B087001F05EFF402005
:1017D00002E07F2000E02220C0B270BD70B504009E
:1017E0000D00DFF8EC6A01203070002001F006FAED
:1017F000032809D0DFF854070078032858DADFF807
:1018000040090078012853D1DFF840070178032907
:1018100002D10178491E0170002001F002FA012076
:10182000DFF81C19087006202080DFF8A81A087855
:10183000002807D1012008704FF64060008880B270
:1018400002F074F8DFF8C0070078012808D1002002
:10185000DFF8841A08600120DFF8801A087008E0B9
:1018600002F01AF8DFF8701A08600020DFF86C1A2E
:101870000870DFF8640A0168090EA9700168090C94
:10188000E9700168090A297101686971006802F04C
:101890005BF8DFF84C1A0860DFF8480A0021017095
:1018A00000214170002181700021C170402004E0BE
:1018B0000320208000203070372070BDF8B5040070
:1018C0000D004026DFF8140A0078012804D0DFF864
:1018D000001A0878002804D1032020802420060064
:1018E00043E000200870DFF8FC090178AA789142F3
:1018F0001ED14178EA7891421AD181782A799142B1
:1019000016D1C0786979884212D10120DFF8F81623
:1019100008700020DFF83416087001F0EDF801209F
:10192000DFF81C18087002202080402006001CE010
:1019300003202080DFF814763878401C387038781F
:10194000032801DB0320387001F0D6F8387803282B
:1019500001DA352006003878032806D14FF47A7171
:10196000002001F06EF9362006003000C0B2F2BD52
:1019700002001220704702001220704710B40200CB
:101980004023DFF874074489592C04DB007A0028CF
:1019900001D1012000E00020C0B2002838D18878B1
:1019A00001280BD1022010800120DFF84C46207066
:1019B0000120DFF84846207040202AE0887802287D
:1019C0000BD1022010800120DFF834462070012066
:1019D000DFF83046207040201BE08878032813D1C0
:1019E000022010800120DFF8104620700120DFF86F
:1019F0000C4620700120DFF8084620700120DFF837
:101A000004462070402004E003201080312000E0D4
:101A10002220C0B210BC704710B402004023DFF88F
:101A2000D8064489592C04DB007A002801D1012012
:101A300000E00020C0B2002838D1887801280BD1FE
:101A4000022010800020DFF8B04520700120DFF870
:101A5000AC45207040202AE0887802280BD1022073
:101A600010800020DFF8984520700120DFF89445B1
:101A7000207040201BE08878032813D102201080BA
:101A80000020DFF8744520700120DFF870452070D9
:101A90000020DFF86C4520700120DFF868452070D9
:101AA000402004E003201080312000E02220C0B25A
:101AB00010BC704730B402004023DFF83C06448974
:101AC000592C04DB007A002801D1012000E000201D
:101AD000C0B2002838D1887801280BD102201080AC
:101AE00040200124DFF810552C700024DFF80C553D
:101AF0002C702AE0887802280BD102201080012067
:101B0000DFF8FC4420700020DFF8F844207040200B
:101B10001BE08878032813D1022010800120DFF811
:101B2000D84420700020DFF8D44420700120DFF872
:101B3000D04420700020DFF8CC442070402004E026
:101B400003201080312000E02220C0B230BC70475A
:101B500010B402004023DFF8A0054489592C04DBAF
:101B6000007A002801D1012000E00020C0B2002846
:101B700038D1887801280BD1022010800020DFF8AE
:101B8000784420700020DFF87444207040202AE060
:101B9000887802280BD1022010800020DFF86044F2
:101BA00020700020DFF85C44207040201BE0887823
:101BB000032813D1022010800020DFF83C4420705D
:101BC0000020DFF8384420700020DFF83444207013
:101BD0000020DFF830442070402004E00320108013
:101BE000312000E02220C0B210BC7047020040202B
:101BF000704710B403004020DFF8FC245489592CAE
:101C000004DB127A002A01D1012200E00022D2B2C4
:101C1000002A04D10122DFF8DC43627001E02222B5
:101C20001000C0B210BC704710B403004020DFF8B1
:101C3000C8245489592C04DB127A002A01D10122CC
:101C400000E00022D2B2002A04D10022DFF8A4432F
:101C5000627001E022221000C0B210BC7047020086
:101C60004020704702004020704770B504000D000E
:101C70004026DFF884044189592904DB007A0028D2
:101C800001D1012000E00020C0B2002801D02220B4
:101C900011E06878FF280BD1A878FF2808D1E878F0
:101CA000FF2805D10120208001F062FF402002E0E2
:101CB000032020803120C0B270BD38B504000D0073
:101CC00009222900200001F0A7FF402032BD38B5CD
:101CD00004000D0009222900200001F0C6FF402069
:101CE00032BD0200032010801220704770B504003E
:101CF0000D0040262900200002F049F8C0B270BD56
:101D000038B504000D0009222900200002F007F870
:101D1000402032BD020003201080122070470200D4
:101D200003201080122070470200402070470200FC
:101D300040207047020040207047F8B504000D00B5
:101D400040260027B0480078012810D103202080C9
:101D5000112354222900200000F070FE07003800F3
:101D6000C0B2002801D1402002E0722000E0332000
:101D7000C0B2F2BDF8B504000D00402600271420C3
:101D80002080112354222900200000F010FE0100C1
:101D90000800C0B2002801D1402000E07220C0B28B
:101DA000F2BD10B402001320108000200300DBB24B
:101DB000102B0ADADFF830350400E4B21B5D0400B2
:101DC000E4B20C44E370401CF0E7402010BC7047C4
:101DD00010B402001320108000200300DBB2102B8F
:101DE0000ADADFF808350400E4B21B5D0400E4B24F
:101DF0000C44E370401CF0E7402010BC704710B466
:101E000002000720108000200300DBB2042B0ADA56
:101E1000DFF8DC340400E4B21B5D0400E4B20C44DF
:101E2000E370401CF0E7402010BC704710B4020083
:101E30000E20108000200300DBB20B2B0ADADFF843
:101E4000B4340400E4B21B5D0400E4B20C44E3705B
:101E5000401CF0E7402010BC7047F8B504000D00AE
:101E60004026002713202080102340222900200034
:101E700000F09DFD01000800C0B2002801D1402003
:101E800000E07220C0B2F2BDF8B504000D0040269B
:101E900000275D480078012810D1032020801023FE
:101EA00040222900200000F0C9FD07003800C0B220
:101EB000002801D1402002E0722000E03320C0B2AF
:101EC000F2BDF8B504000D00402600270720208051
:101ED000042338222900200000F069FD01000800D9
:101EE000C0B2002801D1402000E07220C0B2F2BD93
:101EF00010B402000B20108000200300DBB2082B7E
:101F00000ADADFF8F4330400E4B21B5D0400E4B243
:101F10000C44E370401CF0E7402010BC704710B444
:101F200002000B20108000200300DBB2082B0ADA2D
:101F3000DFF8C8330400E4B21B5D0400E4B20C44D3
:101F4000E370401CF0E7402010BC70470C070020F5
:101F5000F8B504000D004026002707202080042348
:101F600067222900200000F022FD01000800C0B215
:101F7000002801D1402000E07220C0B2F2BDF8B5C7
:101F800004000D00402600271F48007801282CD1AE
:101F900003202080042367222900200000F04EFD4A
:101FA00007003800C0B200281DD1E878002802D010
:101FB000E878FF2804D10C20DFF84413087003E010
:101FC000E878DFF83C1308702879002802D02879D7
:101FD000FF2803D11420CB49087002E02879C949B1
:101FE0000870402002E0722000E03320C0B2F2BD51
:101FF0005C000020AC0600205E0000205F00002096
:1020000060000020610000200E0700202DE9FF4144
:1020100004000D00402600275FF0000868460021FC
:10202000016002A80021016001A800210160B648FA
:102030000078012855D103202080002080464046AA
:10204000C0B2042838DA68464146C9B22944C97882
:102050004246D2B2815401A94246D2B2825C12F009
:102060000F024346DBB2CA5402AA4346DBB2C35C4A
:10207000DBB21B09C4465FFA8CFC02F80C30434605
:10208000DBB2C95C0A2904DA4146C9B2515C0A29AB
:1020900002DB312006000FE09DF80210132902DB5D
:1020A0003120060008E0C078322802DB312006002B
:1020B00002E018F10108C2E73000C0B2312812D0A6
:1020C000042338222900200000F0B8FC0700380063
:1020D000C0B2002802D14020060004E072200600B1
:1020E00001E0332006003000C0B204B0BDE8F0814A
:1020F0001007002011070020F005002010B4030095
:102100004022C878002802D13120020013E0C878AC
:1021100003280CD1052018800879C0B2C0097B4C77
:102120002070087910F07F00794C207003E00320C4
:102130001880312002001000C0B210BC70470000AF
:102140000D0700200B0700209006002010B40200AD
:102150000D20108000200300DBB20A2B09DA6D4B42
:102160000400E4B21B5D0400E4B20C44E370401CC4
:10217000F1E7402010BC70471407002000FD030861
:1021800010B402000D20108000200300DBB20A2BE7
:1021900009DA614B0400E4B21B5D0400E4B20C44B4
:1021A000E370401CF1E7402010BC70470200402063
:1021B0007047020040207047020040207047020034
:1021C00040207047020040207047020040207047C6
:1021D00010B4020040200523138000230B7101235B
:1021E0004E4C2370C0B210BC7047020040207047B4
:1021F0000200402070470200402304201080424823
:102200000078012801D1402000E03320C0B270479F
:1022100002004023042010803B480078012801D1AF
:10222000402000E03320C0B27047020040207047D9
:102230000200402334480078012803D10420108094
:10224000402000E03320C0B2704702004023042049
:1022500010802D480078012801D1402000E0332073
:10226000C0B27047020040207047020040230420A3
:10227000108025480078012801D1402000E033205B
:10228000C0B2704702004023042010801E4800782E
:10229000012801D1402000E03320C0B27047020085
:1022A0004020704710B504002000C0B2012809D1B9
:1022B00001201B49087001201A490870012002F012
:1022C000F0F802E02000C0B2022810BD0F07002085
:1022D0000A07002008070020C00600200907002088
:1022E000C4060020BC06002030FD030820FD0308C2
:1022F0000C00002040FD0308100000201800002002
:1023000012070020130700200E07002010070020EE
:10231000110700200000002060FD03080B070020CB
:1023200060000020610000207047704770477047D0
:10233000FEE730B4002513E050F8042BD30744BF68
:10234000A9F101039A18091F042942F8045BFAD283
:1023500013468C0744BF15809B1CC90748BF1D70DE
:1023600050F8041B0029E7D130BC704770B5FF203E
:10237000DFF8941308700020DFF89013087001F064
:10238000EFFF03F07AF803F083F8FDF7E7FE03F0C0
:1023900045FF0121012003F042FF00242000C0B2CC
:1023A000002806D100212000C0B202F010FA641CFF
:1023B000F4E703F0B1FF03F0ABFF962002F00FF853
:1023C00002252800C0B2032806D22900C9B2012084
:1023D00002F098F86D1CF4E700263000C0B2022825
:1023E00006D23100C9B2012002F08CF8761CF4E765
:1023F00070BD38B56946002002F0B4F90400200031
:10240000C0B2002806D19DF80000012802D10020AA
:1024100003F03BF96946012002F0A4F90500280009
:10242000C0B2002806D19DF80000012802D1012089
:1024300003F02BF931BD10B504002000C0B2022812
:1024400002D1002003F09CFE2000C0B2022802D17D
:10245000012003F095FE2000C0B2FFF79EF810BDEA
:10246000010000200A00D2B2022A01D11E2210006F
:102470000A00D2B2022A01D11E221000C0B2704757
:1024800010B504002000C0B2022802D1002003F0E1
:10249000FBFD2000C0B2022802D1012003F0F4FDB0
:1024A0002000C0B2FFF77AF810BD10B5040020007C
:1024B000C0B2FFF775F810BD10B504002000C0B21F
:1024C000FFF773F810BD10B504002000C0B29628C5
:1024D00001D102F0DDFF2000C0B2FFF760F810BDAF
:1024E00010B504002000C0B2FFF764F810BD38B585
:1024F00004000D002900C9B22000C0B2FFF75BF84C
:1025000031BD704780B5FFF774FF02F02CFC03F07B
:1025100047FD7E480178042904D300210170FEF7AD
:102520003DFF02E00178491C017001BD10B50400B7
:102530002000C0B2FFF7F8FE10BD38B504000D0052
:10254000200071490978C0B2884201D1FEF7D3FF5B
:102550002900C9B22000C0B2FFF7E7FE31BD2DE966
:10256000FF4104000D0054EA0500C0B200283DD12F
:1025700002AA0DF102012000C0B203F065F80700C5
:102580002000C0B2012802D100200400FFE738007B
:10259000C0B200282AD10223012202990DF10200C3
:1025A000FDF701FE06003000C0B2012814D1BDF8CD
:1025B000020000281AD0029ABDF802102000C0B212
:1025C00002F0FAFF80464046C0B200280ED120003B
:1025D000C0B202F0C5FF09E03000C0B2782805D1D2
:1025E000494804700121007802F088FF2800C0B239
:1025F00000283FD12000C0B201283BD101AA694682
:102600002000C0B203F020F807002000C0B201286B
:1026100002D100200400FFE73800C0B2002829D111
:102620000223022201996846FDF7BDFD0600300035
:10263000C0B2012814D1BDF8000000281AD0019AB8
:10264000BDF800102000C0B202F0B6FF8046404640
:10265000C0B200280ED12000C0B202F081FF09E014
:102660003000C0B2782805D12748047001210078D5
:1026700002F044FF2900C9B22000C0B2FFF756FEA5
:10268000BDE8FF8138B504000D001F482100027825
:10269000C9B2914207D12900C9B2002903D1012151
:1026A000007802F02BFF31BD10B504002000C0B24D
:1026B00003282000C0B2FFF7F5FD10BDF8B50500F6
:1026C0000C00002C01D1FF201BE00F4F220029003D
:1026D00089B2387802F070FF06003000C0B20028DE
:1026E00002D1387802F03CFF20787F2802D1A07810
:1026F000782805D00021387802F000FFFF203870DC
:102700004020C0B2F2BD00002407002025070020B1
:102710002DE9F84F05008A46002600275FF00008E3
:10272000A9465046C0B2002803D15FF00C600700F4
:1027300019E05046C0B2012803D1DFF87804070041
:1027400011E05046C0B2022803D1DFF86C04070044
:1027500009E05046C0B2032803D1DFF86004070047
:1027600001E001200600BB4600F0CAFA00F014FDAB
:102770001BF1800087420BD2B7EB0B00800859F8A1
:10278000200004002100380000F0D9FC3F1DEFE7D5
:1027900000F013FD00F0CFFA3000C0B2BDE8F28FB8
:1027A0002DE9F04705008946002600270020A846AD
:1027B0004946C9B2002903D15FF00C610F0019E04E
:1027C0004946C9B2012903D1DFF8E8130F0011E02F
:1027D0004946C9B2022903D1DFF8DC130F0009E032
:1027E0004946C9B2032903D1DFF8D0130F0001E035
:1027F00001210E00BA461AF18000874212D200F081
:102800007FFA00F0C9FC380000F0B8FC040000F0CA
:10281000D4FC00F090FAB7EB0A00800848F820409A
:102820003F1DE8E73000C0B2BDE8F087F8B504000E
:102830000D00012600F064FA00F0AEFC200000F06C
:102840007CFB07003800C0B200280AD12900200014
:1028500000F0C7FB07003800C0B2002801D10020FB
:10286000060000F0AAFC00F066FA3000C0B2F2BD2B
:1028700070B4020000230025002420001600C0B21E
:10288000F6B2B0420BD22000C0B2085CC31813F4F9
:102890007F4F02D003F0FF035B1C641CEDE71800C0
:1028A000C0B270BC70470020DFF81433D9781A79B1
:1028B00052EA0122597951EA0221491C0A00120CFC
:1028C000DA700A00120A1A71597170470020DFF895
:1028D000F43293F87A1093F87B2052EA012293F8AD
:1028E0007C1051EA0221491C0A00120C83F87A205C
:1028F0000A00120A83F87B2083F87C10704738B5F1
:10290000002400200100C9B280290CDA0100C9B2FC
:1029100001F1006111F568310978A94A0300DBB2C1
:10292000D154401CEEE7A64D29007D20FFF7A0FF03
:102930000100C9430A00D2B295F87D008218FF2A2F
:1029400033D1A14AA8791070E8795070287A907034
:10295000687AD070A87A1071E87A5071287B9071EB
:10296000687BD071107800281DD1507800281AD1CA
:102970009078002817D1D078002814D11079002839
:1029800011D1507900280ED1907900280BD1D0793F
:10299000002808D1FF20107050709070D070107116
:1029A00050719071D071002000E0012032BD2DE9FE
:1029B000F04704000D0016001F005FF000085FF0F4
:1029C000000900200100C9B280290CDA0100C9B257
:1029D00001F1006111F568310978794A0300DBB231
:1029E000D154401CEEE7DFF8D8A151467D20FFF717
:1029F0003FFF0100C9430A00D2B29AF87D00821855
:102A0000FF2A18D13000C0B20AEB000200231800E0
:102A1000BC46C0B25FFA8CFC60450AD21800C0B256
:102A2000105C9C465FFA8CFCAC448CF803005B1C89
:102A3000EDE7002000E00120BDE8F0872DE9F14F2F
:102A400082B00C0015001E005FF0000A00275FF046
:102A5000000900200100C9B280290CDA0100C9B2C6
:102A600001F1006111F568310978554A0300DBB2C4
:102A7000D154401CEEE7DFF848B159467D20FFF7FE
:102A8000F7FE80467FEA08084146C9B29BF87D0000
:102A90004118FF2929D12800C0B2584400905FF0A6
:102AA000000948463100C0B2C9B288420AD248463D
:102AB000C0B22044C07800994A46D2B2885419F175
:102AC0000109EEE7FFF7EFFE59467D20FFF7D0FE44
:102AD00082468BF87DA059463C48FFF7A7FE0100CF
:102AE0000800C0B2002802D103E0012002E001206A
:102AF00000E00020BDE8FE8FF8B500260027314D2C
:102B000000212800FFF74CFE04002000C0B200287E
:102B100025D129007D20FFF7ABFE0600F6433100EA
:102B2000C9B295F87D004118FF2916D128480078D0
:102B300085F87800FFF7CAFE29007D20FFF798FE90
:102B4000070085F87D7000212800FFF7E1FD0100F6
:102B50000800C0B2012806D103E0012004E00120F2
:102B600002E0012000E00020F2BDF8B500270025BA
:102B7000144E00213000FFF713FE04002000C0B205
:102B8000002814D131007D20FFF772FE0100C943F7
:102B90000A00D2B296F87D008218FF2A05D196F875
:102BA00078000B4A1070002002E0012000E00120B4
:102BB000F2BD00008000C0080001C0088001C0080C
:102BC000D803002058040020A406002000A0030819
:102BD0000C07002010B400200021080080B2192842
:102BE0000ADA0022424B0C00A4B20620444303EB55
:102BF00004000271491CF0E710BC704710B40200D9
:102C00000020110089B2192908DA394B1400A4B246
:102C100006214C4303EB040109790800C0B210BC43
:102C2000704710B4010089B2192908DA0222304B2A
:102C30000400A4B206214C4303EB04010A7110BC4A
:102C4000704730B4020092B2192A12DA0622284BD9
:102C500000240500ADB255435C530400A4B25443B4
:102C60001C4461800400A4B202FB04F21A44012354
:102C7000137130BC704710B400210020010089B2EC
:102C8000192925DA06211A4A03009BB24B43134443
:102C90001B79012B1AD103009BB24B43D35A5B1C07
:102CA0000400A4B24C43135303009BB24B43D35ACA
:102CB0000400A4B24C4314446488A34206D3030026
:102CC0009BB201FB03F1114403220A71401CD5E7BA
:102CD00010BC704780B50120FFF790FF032806D194
:102CE00001200449087000210020FEF766FC01BDA8
:102CF000BC0200205D000020002203F025BB010182
:102D0000DFF86C050068000607D5DFF86805DFF816
:102D100068150160DFF864150160DFF8640500687C
:102D2000000607D5DFF85C05DFF84C150160DFF819
:102D30004C1501607047DFF83805016851F08001DB
:102D40000160DFF83C05016851F0800101607047C7
:102D5000DFF84405016851F4007101607047DFF845
:102D60003805016831F4007101607047DFF828050B
:102D7000016851F4006101607047DFF81C050168CB
:102D800031F400610160704738B5040000F03AF892
:102D90000500DFF8EC04016831F0407101602100AA
:102DA000C9B203290CD12900C9B2032908D001688E
:102DB00051F0407101605FF4803000F02FFC20E0A2
:102DC0002100C9B202290CD12900C9B2022908D0B8
:102DD000016851F0007101605FF4003000F01EFCEA
:102DE0000FE02100C9B201290BD12900C9B2012984
:102DF00007D0016851F0807101605FF4802000F01D
:102E00000DFC31BDDFF890040168C90301D5032032
:102E10000AE00168890301D5022005E0006840034B
:102E200001D5012000E00020C0B2704770B5040059
:102E30000D00B4F1006F23D3DFF8F00484421FD2F9
:102E4000DFF8EC040460DFF82864306820F06040AC
:102E5000306030682900C9B250EA41703060306893
:102E600050F480303060306850F0400030605FF4E3
:102E70007F0000F0A7FB316831F4803131601EE043
:102E8000DFF804050460DFF8F863306820F0604084
:102E9000306030682900C9B250EA41703060306853
:102EA00050F480303060306850F0400030605FF4A3
:102EB0007F0000F09DFB316831F480313160C0B299
:102EC00070BD80B540F2053000F0D9FA4FF4417082
:102ED00000F0D5FA40F2033000F0D1FA40F20230AF
:102EE00000F0CDFA40F2013000F0C9FA40F20630AD
:102EF00000F0C5FA40F20F3000F0C1FA01BD80B514
:102F000041F2053000F0BBFA41F2043000F0B7FAAC
:102F100041F2033000F0B3FA41F2023000F0AFFAB0
:102F200041F2013000F0ABFA41F2063000F0A7FAAE
:102F300041F20F3000F0A3FA01BD70B50400002685
:102F4000B4F1006F27D3DFF8E403844223D2FFF704
:102F5000B8FF5FF47F0000F035FB05002800C0B229
:102F6000002815D1DFF80863306850F002003060A7
:102F7000DFF8BC030460306850F0400030605FF45C
:102F80007F0000F01FFB0500306830F00200306069
:102F9000FFF797FF22E05FF47F0000F029FB0500B8
:102FA000FFF7ADFF2800C0B2002815D1DFF8D062CE
:102FB000306850F002003060DFF8CC030460306805
:102FC00050F0400030605FF47F0000F011FB05001E
:102FD000306830F002003060FFF791FF2800C0B287
:102FE00070BD2DE9F04704000D005FF00009FFF708
:102FF00009FF82465046C0B2012802D00120FFF7E7
:10300000C3FE05212000FFF711FF80464046C0B2F5
:10301000072801D1032090E0DFF87C0200688005DA
:1030200003D501208146FFF79AFEFFF79FFEFFF7C9
:10303000A4FEB4F1006F3ED3DFF8F00284423AD22E
:103040005FF47F0000F0BEFA07003800C0B200282D
:103050006BD1DFF81C82D8F8000050F48070C8F8FB
:103060000000002006003000C0B2202811DA300035
:10307000C0B205EBC000D0E9000120603000C0B252
:1030800005EBC000D0E90001201D01600834761C6A
:10309000E9E7D8F8000050F04000C8F800005FF4FD
:1030A0007F0000F08FFA0700D8F8000030F480703D
:1030B000C8F8000039E05FF47F0000F099FA0700DB
:1030C0003800C0B2002830D1DFF8B481D8F8000051
:1030D00050F48070C8F80000002006003000C0B234
:1030E000202811DA3000C0B205EBC000D0E90001A1
:1030F00020603000C0B205EBC000D0E90001201D07
:1031000001600834761CE9E7D8F8000050F0400070
:10311000C8F800005FF47F0000F06AFA0700D8F8F2
:10312000000030F48070C8F800004846C0B20128A2
:1031300001D1FFF70DFE3800C0B2BDE8F087F8B549
:1031400004000D00FFF75EFE07003800C0B2032840
:1031500002D00320FFF718FE5FF47F0000F048FA6A
:1031600006003000C0B2002805D125605FF47F0062
:1031700000F03EFA06003000C0B2F2BD38B50400DF
:10318000FFF740FE05002800C0B2032802D003204C
:10319000FFF7FAFD206832BDDFF8E4000168890519
:1031A00007D4DFF88814DFF8D0200A60DFF8CC20DD
:1031B0000A6001688905FCD57047DFF86C04016876
:1031C00031F4007101607047DFF85C04016851F46C
:1031D000005101607047F8B5DFF854542C6800F0D6
:1031E00053F8032801D1092041E05FF47F0000F08B
:1031F000FFF906003000C0B2002836D1DFF8807039
:10320000386850F020003860386850F0400038606E
:103210005FF47F0000F0ECF906003000C0B2002837
:103220001FD1386830F020003860386850F0100046
:10323000386004F0FF0050F47F0028605FF0FF303A
:10324000DFF8F01308605FF47F0000F0D1F90600AA
:103250003000C0B2062808D0386830F0100038605E
:1032600003E0386830F0200038603000C0B2F2BDB2
:10327000102002400820024023016745AB89EFCDB2
:103280005020024048200240DFF8AC030068C0F341
:103290004100C0B27047000000200240F8B50400B1
:1032A000DFF898633068400701D50A2017E03568D9
:1032B000ADB225435FF47F0000F09AF907003800B3
:1032C000C0B2002809D13560306850F0020030608B
:1032D0005FF47F0000F08CF907003800C0B2F2BD47
:1032E0002DE9F04104000027DFF85053286840071B
:1032F00001D50A2018E02E6836F4004626435FF414
:103300007F0000F075F980464046C0B2002809D120
:103310002E60286850F0020028605FF47F0000F003
:1033200067F980464046C0B2BDE8F081000004085D
:10333000142002402DE9F04104000D00DFF8FC628A
:103340003068400701D50A201BE0376837F0F007E6
:10335000274337F470672F435FF47F0000F048F98C
:1033600080464046C0B2002809D13760306850F02E
:10337000020030605FF47F0000F03AF9804640467A
:10338000C0B2BDE8F0810000542002400020DFF808
:10339000AC12096811F0F0010A00002A1ED0102AB0
:1033A00033D0202A44D0302A1CD0402A1ED0502AA4
:1033B00020D0602A2DD0702A3ED0802A1ED0902A9C
:1033C0002BD0A02A3CD0B02A2AD0C02A2CD0D02A78
:1033D00039D0E02A3BD0F02A13D03CE05FF48032B1
:1033E000100038E04FF44042100034E04FF4004247
:1033F000100030E04FF4804210002CE0002210005A
:1034000029E05FF0FF32100025E04FF40042100089
:1034100021E04FF4005210001DE0002210001AE0DD
:103420004FF48042100016E04FF4C042100012E04A
:103430004FF4804210000EE04FF4805210000AE07A
:103440000022100007E04FF40052100003E04FF498
:1034500040521000FFE770470100080000B2C0F3BF
:10346000891000F1804010F50830006811F01F024B
:10347000D040C00701D5012000E00020704710B403
:103480002249020012B2C2F389128A1803001BB249
:10349000C3F38913C9180B68012410F01F018C4075
:1034A0002343136010BC704770B403000020002455
:1034B00001251649C3F389128A18126813F01F06F2
:1034C00015FA06F6324011EB935109681E00360CCE
:1034D00016F01F06B5402940002903D0002A01D06C
:1034E000012000E0002070BC704710B4074911EBC8
:1034F0009052126801230400240C14F01F04A3400E
:103500009A4311EB90510A6010BC704700200240B2
:1035100000204B490A68D20702D50121080022E0A9
:103520000A68D20602D5052108001CE00A68520785
:1035300002D50321080016E00A68920702D502218D
:10354000080010E00A68120702D5042108000AE00A
:103550000A68520602D50721080004E00968090438
:1035600001D508210800C0B27047002035490A681B
:10357000D20702D50121080022E00A68D20602D54E
:10358000052108001CE00A68520702D50321080043
:1035900016E00A68920702D50221080010E00A68C6
:1035A000120702D5042108000AE00A68520602D573
:1035B0000721080004E00968090401D50821080072
:1035C000C0B2704738B504000125FFF7A1FF050020
:1035D000641E2800C0B2012801D1002CF5D12800BA
:1035E000C0B2012801D1062005002800C0B232BDBA
:1035F00038B504000125FFF7B8FF0500641E280058
:10360000C0B2012801D1002CF5D12800C0B2012898
:1036100001D1062005002800C0B232BD0A49096860
:103620000142FBD07047000050200240442002407D
:1036300000F8FF1F04F8FF1F5C20024068200240D2
:103640000C2002404C2002400020024010B4030035
:10365000FF200A00511E92B2002A11D01A78504061
:103660005B1C002214002200D2B2082AF1DA020602
:1036700003D5400090F01D0000E04000641CF2E71C
:1036800090F0FF00C0B210BC70472DE9F84185B042
:10369000002400261E275FF00008784D42463900BE
:1036A000280002F06BFE1123542269462000FFF728
:1036B0007EF905002800C0B2002809D111260DF1BD
:1036C0000307DFF8BC8132003900404602F08AFE71
:1036D00006B0BDE8F08138B588B06A4800780128A6
:1036E00003D109206849087053E067480178491CF4
:1036F000017001780A294CDB00210170634C2078AD
:103700008DF800006D46607868706068000CA870E5
:103710006068000AE87060682871207A6871607AD1
:10372000A87107216846FFF791FFA0729DF800007D
:103730008DF8140068788DF81500A8788DF81600BB
:10374000E8788DF8170028798DF8180068798DF8D9
:103750001900A8798DF81A00A07A8DF81B004C4A40
:1037600005A890600C20116860F31B61116050681F
:1037700010F0604050F4627050600621454803F03C
:10378000ACF8607A10F0F001401C10F00F00084314
:1037900060723A4C0FF265021921201D00F010F8FA
:1037A0000FF26102322114F10E0000F009F80FF25D
:1037B0006102322114F1160000F002F809B030BDA8
:1037C00070B504000E0015006078012806D10020B5
:1037D000607000206080002020700DE06088310063
:1037E00089B2884203D26088401C608004E00120D6
:1037F000207000206080A84770BD000000201F4995
:10380000087070471D4801210172002141817047F5
:1038100000201A49887470472DE9F24F86B081461E
:1038200092469B46109C119D129E139FDDF850807E
:103830009DF818008DF80C008DF80DA08DF80EB0D5
:103840008DF80F408DF810508DF811608DF81270C2
:103850008DF813800E4A03A890600C20116860F365
:103860001B611160506869F31C0050601E210948FB
:1038700003F033F807B0BDE8F08F0000F00500203A
:103880005006002017070020620000208406002058
:103890002806002000A00140F0B5274C274A2078D8
:1038A000274B6FF0004150BB0820656803FB0525DE
:1038B0000E46B5FBF6F601FB1655401E6560F4D1C9
:1038C000204D2E461020676803FB07278C46B7FB68
:1038D000FCFC01FB1C77676046F8047B8E4603FB0B
:1038E0000727B7FBFEFE01FB1E776760401E46F808
:1038F000047BE8D1E86FC5F8800001252570606879
:1039000003FB00220B46B2FBF3F301FB13210D4A2C
:10391000616092F8803003F01F0352F82300C2F870
:10392000800042F8231020F04040F0BD0249002200
:103930000A70486070470000540000205FF36E3C3E
:103940000D6619005403002010B40100002200206D
:103950000B4B002911D011F1010F0ED000242200D1
:103960001400E4B2232C08DA002902D5490059409A
:1039700000E049000800521CF2E710BC704700BF8D
:10398000E0B623982DE9F04130240025DFF8A8693E
:103990002A002100300002F0F1FC0E260027DFF89B
:1039A0009C893A003100404602F0E8FCDFF890893B
:1039B000012088F8010000F08DF888F8000000214F
:1039C0000800C0B20B2880F28380DFF878290B0052
:1039D000DBB20320434302EB03004078C0F38010C6
:1039E000C0B2002856D10B00DBB203204343D35CA6
:1039F00013F0FE030C00E4B20320444313550B0004
:103A0000DBB203204343D35C13F0FB030C00E4B2AE
:103A10000320444313550B00DBB203204343D05C27
:103A2000C0F3C000C0B2002834D00B00DBB20320CA
:103A3000434302EB0300437813F0C0005B1C13F018
:103A40003F0303430C00E4B20320444302EB0400B1
:103A500043700B00DBB20320434302EB03004078CA
:103A600010F03F00282815DB0B00DBB20320434396
:103A700002EB0300437813F0C0030C00E4B2032010
:103A8000444302EB0400437000230C00E4B2032023
:103A9000444313550B00DBB20320434302EB030006
:103AA000437813F0BF030C00E4B20320444302EB5D
:103AB000040043700B00DBB203204343D35C13F0DC
:103AC000FE030C00E4B2032044431355491C77E77E
:103AD000BDE8F081F8B500260027DFF86C4800212A
:103AE0002000FEF75DFE05002800C0B200283DD191
:103AF00021007D20FEF7BCFE0100080094F87D2027
:103B0000C0B2904230D100221000C0B20B2829DA96
:103B1000DFF830381600F6B203204643A65D1700E2
:103B2000FFB20320474303EB070046701600F6B2CE
:103B30000320464304EB060046781700FFB203203B
:103B40004743DE551600F6B20320464304EB060059
:103B500086781700FFB20320474303EB0700867007
:103B6000521CD1E7002002E0022000E00120F2BD5B
:103B70002DE9F041002400210800C0B20B2831DA01
:103B8000DFF8C02700230D00EDB20320454302EB10
:103B90000500437000230D00EDB20320454353554B
:103BA00000230D00EDB20320454302EB05008370B6
:103BB000DFF8942700230D00EDB203204543535551
:103BC00000230D00EDB20320454302EB05004370D6
:103BD00000230D00EDB20320454302EB0500837086
:103BE000491CC9E7FEF772FEDFF85C6731007D20F3
:103BF000FEF73EFE050086F87D5000213000FEF7FE
:103C000087FD30260027DFF830873A003100404634
:103C100002F0B4FBBDE8F081F0B5030000240025FC
:103C200000273800C0B20B2814DA8E781640DFF86F
:103C300014C7BE465FFA8EFE032000FB0EFE1CF882
:103C40000E00064034002000C0B2002800D06D1CD9
:103C50007F1CE6E7062018808A700120C8702800C3
:103C600080B2000A08714D71F0BDF0B50300002468
:103C70000020002500263000C0B20B284BDA91F856
:103C800002C012EA0C0CDFF8BC76B6465FFA8EFE74
:103C9000032000FB0EFE17F80E0010EA0C0C644621
:103CA0002000C0B2002834D0DFF8A006B4465FFA86
:103CB0008CFC50F82CC05FEA1C4CAE461FFA8EFEFE
:103CC0008E448EF803C0B4465FFA8CFC50F82CC0CA
:103CD0005FEA1C2CAE461FFA8EFE8E448EF804C09E
:103CE000B4465FFA8CFC50F82C00AC461FFA8CFCF2
:103CF0008C448CF80500B4465FFA8CFC032000FB72
:103D00000CFC17F80C0010402F00BFB20F44B87124
:103D10002D1D761CAFE7E81C18808A70F0BDF0B44A
:103D20000023002400252B00DBB20B2B2ADADFF85E
:103D30001C362E00F6B253F82660360C2700BFB2B0
:103D40000F44FE702E00F6B253F82660360A2700A4
:103D5000BFB20F443E712E00F6B253F82630260053
:103D6000B6B20E447371DFF8DC652F00FFB2032397
:103D70005F43F35D13402600B6B20E44B371241DB9
:103D80006D1CD0E7E31C03808A70F0BC7047F0B470
:103D900002000026002340254C7914F00104200085
:103DA000C0B200284BD0002003001800C0B20B287E
:103DB0001DDADFF898058E781F00FFB250F82770E3
:103DC0003F0CFFB2BE4210D1CE781F00FFB250F8B8
:103DD00027703F0AFFB2BE4207D10E791F00FFB223
:103DE00050F82700C0B2864201D05B1CDDE7180006
:103DF000C0B20B281FDADFF84C651F00FFB20320AA
:103E00004743F05D10F0090048711F00FFB2032026
:103E1000474306EB0700807888711F00FFB203203C
:103E2000474306EB0700407810F03F00C8710820B8
:103E30001080402006E003201080312002E00320A3
:103E400010803120C0B2F0BC704730B40200D2B252
:103E50000B2A6DDA0A00D2B2002A5BD0DFF8E43414
:103E60000400E4B2032254431A5D12F00102002A56
:103E70005ED10400E4B2032254431C5D54F00104FB
:103E80000500EDB2032255435C550400E4B2032261
:103E900054431C5D54F008040500EDB20322554361
:103EA0005C550400E4B20322544303EB040254784B
:103EB00014F0C0040500EDB20322554303EB0502E4
:103EC00054700400E4B20322544303EB0402547818
:103ED00054F040040500EDB20322554303EB050204
:103EE00054700400E4B20322544303EB04029278BA
:103EF000FF2A1DD00400E4B20322544303EB040262
:103F00009478641C0500EDB20322554303EB0502CF
:103F100094700DE0DFF82C340400E4B20322544323
:103F20001C5D14F0FE040500EDB2032255435C5500
:103F300030BC704710B5DFF8004460890A2804DB04
:103F40000A2060810120207201E00020207294F894
:103F50002C00002806D0002084F82C0000202073BC
:103F60000020E0816089002802D00020E08112E07A
:103F7000DFF8C803C07A00280DD0207B00280AD1C2
:103F8000E089322807DAE089401CE081E0893228A4
:103F900001DB0120207394F82D00002806D00020BA
:103FA00084F82D00002020740020608260890028A1
:103FB00002D00020608212E0DFF88003C07A00287F
:103FC0000DD0207C00280AD1608A322807DA608A66
:103FD000401C6082608A322801DB0120207494F842
:103FE0002E00002806D0002084F82E000020207526
:103FF0000020E0826089002802D00020E08212E0E8
:10400000DFF83803C07A00280DD0207D00280AD1BF
:10401000E08A322807DAE08A401CE082E08A32280F
:1040200001DB01202075DFF82813088940F24D429A
:10403000904203DA0889B0F5617F0EDA207E00280D
:104040001CD1608B322819DA608B401C6083608B36
:10405000322813DB0120207610E0207E012809D1D0
:10406000608B002803D0608B401E608306E0002038
:10407000207603E00020207600206083B548007899
:10408000002802D1C8780B2803DA207F012819D133
:104090000EE0207F002819D1E08B322816DAE08B61
:1040A000401CE083E08B322810DB012020770DE0FC
:1040B000E08B002803D0E08B401EE08306E0002068
:1040C000207703E0002020770020E0838888F02814
:1040D00010DA94F82000002820D1608C32281DDAF4
:1040E000608C401C6084608C322817DB012084F8CF
:1040F000200013E094F8200001280AD1608C0028E9
:1041000003D0608C401E608408E0002084F820000A
:1041100004E0002084F8200000206084888840F6B5
:10412000A171884210DB94F82400002820D1E08C93
:1041300032281DDAE08C401CE084E08C322817DB4A
:10414000012084F8240013E094F8240001280AD107
:10415000E08C002803D0E08C401EE08408E00020C2
:1041600084F8240004E0002084F824000020E08487
:1041700079480078012803D078480078012803D1D5
:10418000012084F8280002E0002084F82800217A29
:104190000220FFF75AFE217B0320FFF756FE217C09
:1041A0000420FFF752FE217D0520FFF74EFE217E01
:1041B0000620FFF74AFE217F0720FFF746FE94F80E
:1041C00020100820FFF741FE94F824100920FFF783
:1041D0003CFE94F828100A20FFF737FE10BD564920
:1041E0000879002811D15A480078A6280ADBC88827
:1041F000401CC880C888332818DB012008710020C3
:10420000C88013E00020C88010E051480078A02842
:104210000ADAC888401CC880C888332806DB00201A
:1042200008710020C88001E00020C88008780028BC
:1042300011D14748007855280ADA4888401C488040
:104240004888332818DB012008700020488013E0DC
:104250000020488010E03E4800785B280ADB488850
:10426000401C48804888332806DB00200870002066
:10427000488001E000204880704770B52F4C2088AE
:10428000B0F5967F08DA2088401C20802088B0F5A1
:10429000967F01DB0120A070294D687801280DD19F
:1042A000A07800280AD0FFF79AFF234E317800202B
:1042B000FFF7CBFD31790120FFF7C7FDA07900287A
:1042C00012D123480178652919DB0078962816DA7F
:1042D000A088322813DAA088401CA080A088322849
:1042E0000DDB0120A0710AE0194801785A2902DB90
:1042F0000078A12803DB0020A0800020A07168784E
:10430000012801D1FFF716FE0B48007A002804D0DF
:104310000020E0720020A0810CE0A089642809DA66
:10432000A089401CA081A089642803DB0120E072E1
:104330000020A08170BD0000C005002064060020A0
:10434000AC060020D8040020580400208CA10108ED
:104350009006002035070020330700203407002096
:1043600030B46920DFF8A41A087000210A00D2B224
:10437000032A21D2002210000200D2B2082A13D24E
:10438000DFF88C2A0B00DBB202EBC3020300DBB2C6
:10439000DFF8804A0D00EDB204EBC5040500EDB274
:1043A000645DD454401CE7E70022DFF86C3A0C004F
:1043B000E4B21A55491CD9E700221100C9B20229FA
:1043C0000BD2DFF8581A1300DBB2C95CDFF8E83A09
:1043D0001400E4B21955521CEFE730BC704770B5B9
:1043E00005000024DFF8246A307869283ED096283A
:1043F00002D0C3281CD048E02800C0B2692802D0EF
:10440000C3280CD011E0002000F04BF8040000F0AD
:10441000E6FA35702800C0B2FEF755F807E03570AF
:104420002800C0B2FEF74FF801E01220040035E08A
:104430002800C0B2692802D096280CD013E00020D2
:1044400000F02FF8040000F0CAFA35702800C0B25E
:10445000FEF739F809E000F0F0F935702800C0B235
:10446000FEF731F801E01220040017E02800C0B286
:10447000962807D100F0E1F935702800C0B2FEF7A8
:1044800022F801E01220040008E0DFF8300A00788A
:1044900030701020FDF74BFF1B2004002000C0B23D
:1044A00070BD70B504000025DFF860090178692946
:1044B00019D0962902D0C32915D017E00026300064
:1044C000C0B2032808D23100C9B22000C0B200F047
:1044D0008CFA0500761CF2E72800C0B2002801D053
:1044E000002005000BE01120050008E0DFF8CC19E2
:1044F000097801701020FDF71AFF1B200500280025
:10450000C0B270BD70B504000D000026DFF8FC08D5
:104510000178692911D0962902D0C3290DD00EE067
:104520002800C0B2032801D3132005E02900C9B236
:104530002000C0B200F059FA09E0112007E0DFF8CE
:104540007C19097801701020FDF7F1FE1B20C0B224
:1045500070BDF8B504000025DFF8B00801786929BE
:1045600035D0962902D0C32931D033E02000C0B223
:10457000022803D32000C0B2032802D31320050071
:1045800024E0DFF83C092100C9B2405C10F00600CD
:10459000022819D0DFF880682000C0B2305C000625
:1045A00002D51620050011E0FCF7F3FF07002000FC
:1045B000C0B2305C50F001002100C9B27054380024
:1045C000C0B2FCF7E2FF01E0142005000BE011206F
:1045D000050008E0DFF8E418097801701020FDF705
:1045E000A6FE1B2005002800C0B2F2BD2DE9F04157
:1045F00005000C0000262800C0B2032802D31320B7
:1046000006002DE0002C02D11920060028E0FCF75E
:10461000C0FF07005FF000084046C0B208280ED275
:10462000DFF8EC072900C9B200EBC1004146C9B26E
:104630004246D2B2A25C425418F10108ECE73800BD
:10464000C0B2FCF7A2FF2800C0B2022808D3DFF8EE
:10465000C8072900C9B2405C000601D51620060033
:104660003000C0B2BDE8F0812DE9F84305000C0030
:1046700000262800C0B2032802D3132006006DE0F4
:10468000002C02D11920060068E0FCF782FF070029
:104690002800C0B2022814D2DFF824082900C9B2C9
:1046A000405C000706D5DFF810082900C9B210F8F1
:1046B00001800CE0DFF864072900C9B210F801801E
:1046C00005E0DFF858072900C9B210F8018028007A
:1046D000C0B2022827D2DFF840072900C9B2415CE6
:1046E000C90701D518210E002900C9B2415C11F09B
:1046F000FC012A00D2B281545FF0000948464146CD
:10470000C0B2C9B2884225D2DFF804072900C9B275
:1047100000EBC1004946C9B2405C4946C9B2605489
:1047200019F10109EAE75FF0000948464146C0B2C5
:10473000C9B288420ED2DFF8D8062900C9B200EB10
:10474000C1004946C9B2405C4946C9B2605419F13A
:104750000109EAE73800C0B2FCF717FF3000C0B229
:10476000BDE8F28370B505000C000026DFF89C065A
:10477000017869291CD0962901D0C3291BD12800B2
:10478000C0B2022802D31320060010E0002C02D190
:10479000192006000BE0DFF880062900C9B2405C52
:1047A000800702D50120207001E0002020700BE07E
:1047B0001120060008E0DFF8701B09780170102056
:1047C000FDF7B5FD1B2006003000C0B270BD70B50E
:1047D00004000D0000262000C0B2002810D1DFF830
:1047E000800A2100C9B245542900C9B22000C0B2D4
:1047F00000F005FADFF8340B2100C9B2455401E09E
:10480000152006003000C0B270BD10B402000020B8
:104810001300DBB2022B02D3132318000AE0002995
:1048200002D11923180005E0DFF894381400E4B22F
:104830001B5D0B70C0B210BC7047F8B5FCF7A9FE49
:10484000040000252800C0B203280BD2DFF8C40BF7
:104850002900C9B2415C11F074012A00D2B281541E
:104860006D1CEFE72000C0B2FCF78FFEDFF89C055F
:104870000178692904D0962901D0C3290ED114E00A
:1048800000200100C9B2032907D20021DFF8702AF5
:104890000300DBB2D154401CF3E706E0DFF81C163E
:1048A000097801701020FDF742FD00242000C0B2FD
:1048B000002813D10020DFF8781A2200D2B28854E1
:1048C0000020DFF8701A2200D2B288540020DFF8EE
:1048D000681A2200D2B28854641CE7E7DFF85C0A49
:1048E00000210170002141700226FF2701F010FD18
:1048F0003000C0B2002850D0002005002800C0B20F
:1049000002282AD208212800C0B201F0E5FC40F2BA
:10491000FF712800C0B201F0E9FC00212800C0B2FC
:1049200001F0E5FC00212800C0B201F07AFCDFF8BC
:10493000E80A2900C9B230F811102800C0B201F00D
:104940006FFC4FF480712800C0B201F0DAFC28003F
:10495000C0B201F0D7FC6D1CD0E73800C0B2FF2810
:104960001BD01021FF2001F0B7FC0021FF2001F037
:10497000BDFC0021FF2001F0BAFC0021FF2001F066
:1049800050FC0021FF2001F04BFC4FF48071FF2010
:1049900001F0B7FCFF2001F0B5FC02242000C0B2FA
:1049A000032814D200212000C0B201F095FC0021A0
:1049B0002000C0B201F09BFC07212000C0B201F032
:1049C000A0FC2000C0B201F09DFC641CE6E70020C2
:1049D00001F099FC01F098FC02F065F9F1BD80B599
:1049E00001F096FC02F060F901BD2DE9F0410400F0
:1049F0000F0000250026DFF8C8043900C9B2405C6A
:104A000010F0060F46D0DFF8140A3900C9B2405C36
:104A1000401CDFF80C1A3A00D2B28854002006007D
:104A20003000C0B2002814D1DFF8F8093100C9B253
:104A3000405C3900C9B2884209D1DFF8EC09310085
:104A4000C9B2405CDFF8E4193200D2B28854761C57
:104A5000E6E7FCF79EFD80462000C0B201280AD19F
:104A6000DFF8B0093900C9B2415C51F004013A00E5
:104A7000D2B2815409E0DFF89C093900C9B2415C27
:104A800011F0FB013A00D2B281544046C0B2FCF7AB
:104A90007CFD01E0142005002800C0B2BDE8F081D3
:104AA00038B504000D002800C0B201F0BBFB0100C6
:104AB00020000200D2B2022A0BD2DFF85C290300E8
:104AC000DBB232F813200B009BB29A4201D0401C9B
:104AD000EFE7C0B232BDF8B504000D002800C0B247
:104AE000FDF7FEFCDFF830092900C9B230F81110DB
:104AF000A01CC0B201F094FBDFF83469DFF81C039E
:104B00002900C9B2405CF0600021A01CC0B201F0D5
:104B100088FBFCF73EFD0700BD482900C9B200EB49
:104B2000C100B060DFF8F0022900C9B2415C51F069
:104B300080012A00D2B281543800C0B2FCF725FDB2
:104B4000DFF8F0082900C9B2405CDFF8EC1722005A
:104B5000D2B28854DFF8DC072100C9B245540C20DA
:104B6000316860F31B613160706810F0604050F490
:104B7000EF60706032002100C9B2891CDFF8B8080C
:104B800001F0ABFEF1BD38B50500FCF702FD0400F5
:104B9000DFF880082900C9B2415C11F07C012A00CD
:104BA000D2B281542900C9B2415C51F008012A00F7
:104BB000D2B281542000C0B2FCF7E7FC31BD38B559
:104BC0000400DFF870072100C9B2405CFFF7DBFF8B
:104BD000DFF8685728786978884209D068782844CF
:104BE00081782000C0B2FFF776FF0020687005E0F2
:104BF0000020DFF83C172200D2B2885431BD10B437
:104C00000A00D2B2002A0AD1DFF830280300DBB252
:104C1000D25CDFF818380400E4B21A5509E0DFF876
:104C200008280300DBB2D25CDFF800380400E4B2ED
:104C30001A5510BC70472DE9F84F04000D00DFF83D
:104C4000EC062100C9B2415C2A00D2B2914200F0C8
:104C500082802100C9B245542800C0B2002804D186
:104C60002000C0B2FDF721FC75E0DFF8B807210095
:104C7000C9B2475C3800C0B2022868D2FCF789FC90
:104C8000804600200600654831003A00D2B2825CBE
:104C9000C9B291424FD2DFF8A817DFF8A8275C4BC2
:104CA0003800C0B203EBC00CB6465FFA8EFE380087
:104CB000C0B203EBC000B1465FFA89F910F8099061
:104CC0003800C0B202EBC000B2465FFA8AFA10F8B0
:104CD0000AA03800C0B201EBC000B3465FFA8BFBFC
:104CE00010F80B0010EA0A0A5AEA09090CF80E90AB
:104CF0003800C0B203EBC00CB6465FFA8EFE380037
:104D0000C0B203EBC0003300DBB2C35C3800C0B2FA
:104D100002EBC0003200D2B2825C3800C0B201EBBC
:104D2000C0003100C9B2405C30EA020293430CF883
:104D30000E30761CA7E73900C9B2405CDFF880135B
:104D40003A00D2B288544046C0B2FCF71EFC2000A4
:104D5000C0B2FDF7B1FB2900C9B22000C0B2FDF717
:104D6000C6FBBDE8F18F80B500F036FA00F07AFAA4
:104D700000F0A8F900F0C6FA00F0E2FA01F096FFA0
:104D800001BD70B5040021480178692934D0962905
:104D900002D0C32930D030E02000C0B202282AD38C
:104DA0002000C0B2032826D2A41EDFF8840521000B
:104DB000C9B2405C01281ED1DFF878052100C9B2D4
:104DC000455C2000C0B2FFF7FAFEFCF7E2FB0600EC
:104DD00011482900C9B2415C51F030012A00D2B219
:104DE00081543000C0B2FCF7D0FBFDF78AFB2800ED
:104DF000C0B2FDF745FB07E006E0DFF82C150978A7
:104E000001701020FDF793FA70BD00001D0700200F
:104E10001006002098A20108CC0600200CA301086F
:104E2000F8B50500DFF82006017869293CD09629FD
:104E300001D0C32939D12800C0B2022833D32800B9
:104E4000C0B203282FD2AD1EDFF8E8042900C9B292
:104E5000405C0400DFF8BC652000C0B2305C400755
:104E600021D5DFF8CC042900C9B2405C01281AD151
:104E7000FCF78FFB07002000C0B2305C50F0100040
:104E80002100C9B270542000C0B2305C10F0DF00C5
:104E90002100C9B270543800C0B2FCF776FB200084
:104EA000C0B2FDF7C8FA06E005E0044909780170D0
:104EB0001020FDF73CFAF1BDF2060020AB6C0108B2
:104EC00010A301082DE9F84787B004001C25DFF87E
:104ED00078050178692900F0E980962903D0C32973
:104EE00000F0E480E3E02000C0B2022880F0DD8022
:104EF0002000C0B201F0A0F9002840F0D6802000C8
:104F0000C0B2FF2806D12100C9B2FF20FFF7C8FDBB
:104F1000060000E026003000C0B2022880F0C58004
:104F2000DFF828053100C9B250F821703800002898
:104F300003D03000C0B2B8470500FDF7E2FA280000
:104F4000C0B21C2840F0B1806846049002AA21003B
:104F5000C9B2DFF8E40401F059FD002801D0059F33
:104F600000E000273800DFF8E8143200D2B2895C94
:104F7000C0B28842C0F099803800C0B2092880F0E1
:104F80009480FCF706FB8046DFF8C8043100C9B204
:104F9000405C00071AD5DFF8C0043100C9B200EB4D
:104FA000C1012000C0B201F04BF945483100C9B23F
:104FB0004754DFF8A8043100C9B250F821904846A0
:104FC000002852D03000C0B2C8474EE0DFF890044D
:104FD00039003200D2B2825CC9B291422ED35FF066
:104FE000000949463200D2B2825CC9B2914211D264
:104FF000DFF864143200D2B201EBC2014A46D2B2E9
:105000006B46CC465FFA8CFC13F80C308B5419F1CC
:105010000109E6E73100C9B2405C29493200D2B249
:105020008854DFF838043100C9B250F821A0504646
:1050300000281AD03000C0B2D04716E03900320044
:10504000D2B2805CC9B281420FD2DFF818043100BD
:10505000C9B250F821901A483100C9B247544846A5
:10506000002802D03000C0B2C847DFF8A8033100E2
:10507000C9B2415C890708D53100C9B2415C51F021
:1050800039013200D2B2815407E03100C9B2415C2B
:1050900051F03A013200D2B281544046C0B2FCF71E
:1050A00074FA3000C0B200F0ECF906E005E09E4969
:1050B000097801701020FDF73AF908B0BDE8F087D3
:1050C000F2060020F8B5DFF88003017869297BD06B
:1050D000962902D0C32977D077E002242000C0B2FD
:1050E000032870D2DFF82C532000C0B2285C4007A0
:1050F00025D5DFF82C632000C0B2305C022817DA17
:10510000FCF747FA0700DFF860032100C9B2405CF2
:105110002100C9B270542000C0B2285C50F00100D8
:105120002100C9B268543800C0B2FCF72EFA06E07C
:105130002000C0B2305C401E2100C9B27054200073
:10514000C0B2285C10F0030001283AD16C4821005D
:10515000C9B2405C002834D10026FCF71AFA0700D7
:105160002000C0B2285C50F002002100C9B268548F
:105170003800C0B2FCF709FA3000C0B2002807D1ED
:105180006B483100C9B2405C002801D0761CF3E7BF
:105190003000C0B200280BD1012065493200D2B2E4
:1051A00088542100C9B23000C0B2FFF794FC08E077
:1051B00062494878002804D00878084484700020A8
:1051C0000870641C8AE706E005E057490978017019
:1051D0001020FDF7ACF8F1BD70B59B480178692946
:1051E00036D0962901D0C32933D102242000C0B281
:1051F00003282CD2874D2000C0B2285C000717D5A9
:105200009A482100C9B2405C3D492200D2B288547C
:10521000FCF7BFF906002000C0B2285C10F0F700D0
:105220002100C9B268543000C0B2FCF7AEF90CE0FE
:1052300033492000C0B2085C002806D02000C0B26C
:10524000085C401E2200D2B28854641CCEE706E0FF
:1052500005E03549097801701020FDF768F870BD48
:1052600021070020F8B578480178692940D09629AF
:1052700001D0C3293DD100252800C0B2002836D175
:105280002B482900C9B2405C01282ED12A4E2800A3
:10529000C0B2305C01281CD1264F2800C0B2385C57
:1052A000FDF7DEF804002000C0B21E2804D1A81CBF
:1052B000C0B201F008F818E0A81CC0B2FFF7B0FDBA
:1052C0005C482900C9B2795C405C2900C9B27054BD
:1052D0000BE02800C0B2305C022806DB2800C0B218
:1052E000305C401E2900C9B270546D1CC4E706E052
:1052F00005E00D49097801701020FDF718F8F1BD9F
:10530000D006002080B550480178692904D096293C
:1053100001D0C32901D106E005E0034909780170F5
:105320001020FDF704F801BDAB6C01082307002035
:105330001E0700201F07002020070020C8060020AD
:10534000F8B500242000C0B2002862D14848354991
:105350002200D2B2895C405C10F01401142956D1AD
:10536000810605D5002535492200D2B28E5C04E0C5
:1053700001252D492200D2B28E5C3000C0B2022835
:1053800034DB3C4F2000C0B2385C2900C9B28842EF
:105390001AD126482100C9B2415C022907DB21004D
:1053A000C9B2415C491E2200D2B281542FE02900CB
:1053B000C9B22000C0B2FFF722FC2900C9B2200008
:1053C000C0B2FFF738FC22E02900C9B22000C0B209
:1053D000FFF715FC15482100C9B2415C491E2200A7
:1053E000D2B281542000C0B23D5410E021482100C7
:1053F000C9B2415C2A00D2B2914202D02100C9B2A6
:1054000045542900C9B22000C0B2FFF714FC641C47
:1054100098E7F1BDCC060020ECA2010818A3010812
:10542000D40600208A640108AA6C01082207002023
:10543000280600201CA3010800A001408B6401087D
:10544000C0A20108B0A201081D070020F4A20108B3
:10545000FE2C010810A3010810060020FCA2010880
:105460000CA3010804A3010814A3010820A3010848
:10547000F406002021070020704780B5FFF7FCFFED
:1054800001BD024909780029FFD070471C070020A0
:1054900030B400210800C0B202282DD2DFF8D80BAA
:1054A0000A00D2B252010244DFF8D03B0C00E4B251
:1054B0001420444303EB04000023137000235370B3
:1054C000002313750023537543685360836893600A
:1054D000037C5377437C93750023DFF8A44B0D00C6
:1054E000EDB224F815300023DFF8984B0D00EDB233
:1054F00024F81530491CCDE730BC704770B5040066
:105500000D0000262000C0B2022824D22800C0B21C
:10551000022820D22800C0B2002807D10020DFF8DE
:10552000641B2200D2B221F8120016E06420DFF8DA
:10553000541B2200D2B221F81200DFF83C0B2100EC
:10554000C9B2490108444078002806D02000C0B202
:1055500000F03EFE01E0502006003000C0B270BDF9
:1055600038B504002000C0B2022821D2DFF8A00C18
:105570002100C9B2490108448089082805D22000C9
:10558000C0B200F06AFB050004E02000C0B200F0E9
:10559000BAFB05002800C0B200280AD02000C0B223
:1055A00000F016FE0C212000C0B2FCF7C6FF00E0A0
:1055B00050252800C0B232BD70B4030000201C008A
:1055C000E4B2022C3BD21424DFF8B05A1E00F6B22B
:1055D00066432E44B67C36071DD41E00F6B204FB8B
:1055E00006F42C44A4890D00ADB2AC4203D30C00E8
:1055F000A4B2002C02D15124200022E0DFF8104C8C
:105600001D00EDB26D012544A9811D00EDB26D01B3
:105610002C44626015E00C00A4B2002C02D151248D
:1056200020000EE0DFF8E84B1D00EDB26D012544CF
:10563000A9811D00EDB26D012C44626001E050248F
:105640002000C0B270BC704730B4030000201C00C2
:10565000E4B2022C14D2002907D0DFF8B44B1D00AD
:10566000EDB26D012C44248A0C80002A0AD0DFF8A8
:10567000A04B1D00EDB26D012C44A468146001E044
:1056800050242000C0B230BC7047FEB50400002595
:105690002000C0B2022848D2DFF8E8092100C9B2D0
:1056A00030F8110000283DD1DFF8D0192200D2B225
:1056B0001420424301EB020669467078FEF7D4FFDE
:1056C00007003800C0B2002831D19DF8000010F06A
:1056D000F000002806D010280BD0202813D0302846
:1056E00018D01EE069462000C0B200F023F8050083
:1056F0001DE07078002805D169462000C0B200F096
:105700008EF8050013E069462000C0B200F00EF9E3
:1057100005000CE069462000C0B200F0D1F9050098
:1057200005E004E05220050001E0502005002800BB
:10573000C0B2FEBD2DE9F84304000D00DFF83809C2
:105740002100C9B2490100EB0107DFF8301922003E
:10575000D2B21420424301EB02085FF0000938780E
:10576000002803D098F81200000654D47878002856
:1057700006D00020787005212000C0B2FCF7EFFEB3
:10578000694698F80100FFF740F806003000C0B203
:10579000002840D198F81200800703D59DF800003A
:1057A00008280FD098F81200800734D49DF8000024
:1057B000297811F00F01491C88422CD19DF8000076
:1057C000022828D3287810F00F0F24D0287810F062
:1057D0000F0008281FD205207870002078752878DF
:1057E00010F00F00388200200100C9B23A8A89B255
:1057F000914209D20100C9B229444978BA6803002C
:10580000DBB2D154401CEFE700207870002120006B
:10581000C0B2FCF7A4FE4846C0B2BDE8F2832DE951
:10582000F84304000D00DFF850082100C9B2490117
:1058300000EB0107DFF844182200D2B214204243E3
:1058400001EB02085FF000093878002803D098F8CF
:105850001200000666D47878002806D00020787000
:1058600005212000C0B2FCF77AFE694698F80100D5
:10587000FEF7CBFF06003000C0B2002852D19DF8E1
:10588000000008284ED1287810F00F00697811EB3D
:1058900000217982788A082844D306207870002075
:1058A0007875B8F80C00798A884228D3788A3882CB
:1058B0000120387600200100C9B2062909D2010072
:1058C000C9B229448978BA680300DBB2D154401CBC
:1058D000F1E70620788200212000C0B200F00DFB25
:1058E00081464846C0B200281CD02000C0B200F05B
:1058F0006FFC0C212000C0B2FCF731FE12E0022147
:105900002000C0B200F0F9FA81464846C0B2002833
:1059100008D02000C0B200F05BFC0C212000C0B217
:10592000FCF71DFE4846C0B2BDE8F2832DE9F843FE
:1059300004000D00DFF840072100C9B2490100EB67
:105940000107DFF838172200D2B21420424301EBDE
:1059500002085FF000097878002800F0A1807878CC
:10596000092800F09D80694698F80100FEF74DFF78
:1059700006003000C0B2002840F09E8098F8120067
:10598000800703D59DF80000082809D098F8120078
:10599000800700F191809DF800000228C0F08C8003
:1059A000387E10F00F00297811F00F0188426DD178
:1059B00098F81200800703D59DF8000008281AD037
:1059C00098F81200800777D4398A788A091A08294A
:1059D00003DB9DF8000008280DD0398A788A091A5F
:1059E000082969DA9DF800103A8A788A121A521C3E
:1059F000D2B2914260D10720787000207875387E4D
:105A0000401C38760120798A3A8A91420ED20100F0
:105A1000C9B208290AD20100C9B2695CBA687B8A96
:105A2000D154798A491C7982401CECE7788A398AFA
:105A3000884207D10020787000212000C0B2FCF716
:105A40008EFD39E0B87D002802D0F87D401EF87543
:105A5000B87D002802D0F87D002803D098F80F0008
:105A6000787529E000212000C0B200F046FA814696
:105A70004846C0B200281FD02000C0B200F0A8FBEA
:105A80000C212000C0B2FCF76AFD15E00020787000
:105A90000020787506212000C0B2FCF760FD0BE005
:105AA0007878002808D02000C0B200F091FB0A21CD
:105AB0002000C0B2FCF753FD4846C0B2BDE8F283F7
:105AC0002DE9F84304000D00DFF8AC052100C9B250
:105AD000490100EB0107DFF8A4152200D2B214201F
